{
  "contractName": "funding",
  "abi": [
    {
      "inputs": [],
      "name": "totalFunders",
      "outputs": [
        {
          "internalType": "uint256",
          "name": "",
          "type": "uint256"
        }
      ],
      "stateMutability": "view",
      "type": "function",
      "constant": true
    },
    {
      "stateMutability": "payable",
      "type": "receive",
      "payable": true
    },
    {
      "inputs": [],
      "name": "transferFund",
      "outputs": [],
      "stateMutability": "payable",
      "type": "function",
      "payable": true
    },
    {
      "inputs": [
        {
          "internalType": "uint256",
          "name": "amount",
          "type": "uint256"
        }
      ],
      "name": "withdraw",
      "outputs": [],
      "stateMutability": "nonpayable",
      "type": "function"
    }
  ],
  "bytecode": "0x608060405234801561001057600080fd5b506102fd806100206000396000f3fe6080604052600436106100385760003560e01c80632e1a7d4d14610044578063302eb3891461006d578063a5ec9a78146100775761003f565b3661003f57005b600080fd5b34801561005057600080fd5b5061006b600480360381019061006691906101cd565b6100a2565b005b610075610137565b005b34801561008357600080fd5b5061008c61018c565b6040516100999190610209565b60405180910390f35b671bc16d674ec800008111156100ed576040517f08c379a00000000000000000000000000000000000000000000000000000000081526004016100e4906102a7565b60405180910390fd5b3373ffffffffffffffffffffffffffffffffffffffff166108fc829081150290604051600060405180830381858888f19350505050158015610133573d6000803e3d6000fd5b5050565b33600080600154815260200190815260200160002060006101000a81548173ffffffffffffffffffffffffffffffffffffffff021916908373ffffffffffffffffffffffffffffffffffffffff160217905550565b60015481565b600080fd5b6000819050919050565b6101aa81610197565b81146101b557600080fd5b50565b6000813590506101c7816101a1565b92915050565b6000602082840312156101e3576101e2610192565b5b60006101f1848285016101b8565b91505092915050565b61020381610197565b82525050565b600060208201905061021e60008301846101fa565b92915050565b600082825260208201905092915050565b7f63616e2774207769746864726177206d6f7265207468616e203220657468657260008201527f7300000000000000000000000000000000000000000000000000000000000000602082015250565b6000610291602183610224565b915061029c82610235565b604082019050919050565b600060208201905081810360008301526102c081610284565b905091905056fea2646970667358221220b1ef8a4cfa706aa0ba0791828674b2b63fdea762c941065aa7590eaecceeed5f64736f6c63430008090033",
  "immutableReferences": {},
  "source": "// SPDX-License-Identifier: MIT\r\npragma solidity >=0.4.22 <0.9.0;\r\n\r\ncontract funding{\r\n    mapping (uint=>address) private funders;\r\n    uint public totalFunders;\r\n\r\n    receive() external payable{}\r\n\r\n    function transferFund() external payable{\r\n        funders[totalFunders] = msg.sender;\r\n    }\r\n\r\n    function withdraw(uint amount) external{ // jo ahiya payable nai av km k contract ma paisa add thay tyre func. ma payabe\r\n        require(amount<=2000000000000000000,\r\n         \"can't withdraw more than 2 ethers\");\r\n        payable(msg.sender).transfer(amount); // rem. aa transfer j che e inbuild function che j tyre use thay jyre koi address ma paisa send krvana hoy contract mathi. agar address mathi contract ma send krvana hot to we know payable function banavi det apde ek. here syntax yad rakhvani j bi address ma krvana enu address.transfer and agal payable nai bhlvanu j call krse receive n and receive j che e su krse to k bhai default contract ma add kre but here address apelu che and inbuild transfer call thayu che to e address ma paisa add krse ethers.\r\n    }\r\n}",
  "sourcePath": "C:\\Users\\DIXIT KAWA\\Desktop\\Blockchain Projects\\Crowd Funding Project\\contracts\\cfunding.sol",
  "compiler": {
    "name": "solc",
    "version": "0.8.9+commit.e5eed63a.Emscripten.clang"
  },
  "schemaVersion": "3.4.4",
  "updatedAt": "2022-06-18T10:34:53.998Z",
  "networkType": "ethereum",
  "devdoc": {
    "kind": "dev",
    "methods": {},
    "version": 1
  },
  "userdoc": {
    "kind": "user",
    "methods": {},
    "version": 1
  }
}